:020000040800F2
:10000000B0040020D9000008A11200086512000801
:1000100000000000000000000000000000000000E0
:10002000000000000000000000000000A512000811
:100030000000000000000000A3120008A712000842
:10004000EB000008EB000008EB000008EB000008E4
:10005000EB000008EB000008EB000008EB000008D4
:10006000EB000008EB000008EB000008EB000008C4
:10007000EB000008EB000008EB000008EB000008B4
:10008000EB000008EB000008EB0000080000000097
:10009000EB000008EB000008EB000008EB00000894
:1000A000EB000008EB000008EB00000861170008F7
:1000B000EB000008EB00000800000000EB00000867
:1000C0000448854600F090F80048004751180008A1
:1000D000C046C046B004002004488047044800479A
:1000E000FEE7FEE7FEE7FEE7FEE7FEE73513000862
:1000F000C100000830B50B46014600202022012433
:1001000009E00D46D5409D4205D31D469540491B4B
:100110002546954040191546521E002DF1DC30BD94
:10012000F0B51FB40646002082B005464024019178
:1001300000901BE0019922460F46304600F042F83D
:10014000049A059B801A994110D3104619462246FD
:1001500000F028F8361A8F4101972246012000212D
:10016000009F00F01FF838184D4100902046641E93
:100170000028DFDC019B00982946324607B0F0BD1D
:10018000D2B201E00270401C491EFBD2704700222F
:10019000F6E710B513460A4604461946FFF7F0FF86
:1001A000204610BD10B5202A04DB0146203A9140BC
:1001B000002010BD914020239C1A0346E3401943C0
:1001C000904010BD10B5202A04DB0846203AD040EC
:1001D000002110BD0B46D340D0402024A21A9140EC
:1001E0000843194610BD0000064C0125064E05E0E7
:1001F000E36807CC2B430C3C98471034B442F7D348
:10020000FFF762FFE01800080019000830B501464A
:1002100020314A790023022A04D00422C2630B71E0
:10022000012030BD026814680E25AC4314600268DA
:100230001468640864001460446C1C221440012299
:100240001546006CA54045604A7118460B7130BDDB
:1002500070B50024014620314A79022A03D00421D6
:10026000C163012418E0026813680E25AB431360D4
:10027000026813685B085B001360436C1C22134028
:10028000012215469D40036C5D604A7100220A718F
:10029000816B002900D08847204670BDFCB5002343
:1002A0000124A7E027462A469F403A406FD04D6878
:1002B000012D05D0022D03D0112D01D0122D16D104
:1002C00085680326AC465D00AE46AE406546B54344
:1002D000AC46CE687546AE4065462E43866046689D
:1002E0000D79BE43ED06ED0F9D4035434560C66870
:1002F0005F000325BD40AE46AE4335468E68BE4026
:100300002E43C6604E68022E01D0122E14D1DE0894
:10031000B60036180196366A5D07B446EE0E0F2514
:10032000B54000966646AE43B4460D69009EB540A2
:1003300066462E43019D2E6206687546AE430D79D2
:10034000AD07AD0FBD40354305604D68ED0050D59C
:100350002B4D6E6B26436E639E082A4DB6007519B1
:10036000AC46AD689E07360F0F27B740BD43052743
:100370003F07B84201D100271AE0234FB84201D10C
:10038000012715E0214FB84202D1022710E030E0EA
:100390001F4FB84201D103270AE01E4FB84201D1D6
:1003A000042705E01C4FB84201D1052700E00627CD
:1003B000B7402F436546AF60184D2E684F6896438F
:1003C000FF0300D516432E606E684F689643BF0347
:1003D00000D516436E60AE684F689643FF0200D5A5
:1003E0001643AE60EE684F689643BF0200D51643D1
:1003F000EE605B1C0A681546DA4000D052E7FCBD8F
:1004000000100240000001400004005000080050AD
:10041000000C005000100050001C0050000401406F
:10042000014880687047000004000020024881688D
:1004300002788918816070470400002010B50848D0
:1004400000240168402211430160204600F00AF8B0
:10045000002801D0012401E000F026F8204610BD5C
:100460000020024070B504460D4D7D202978C00063
:10047000FFF740FE01460B480068FFF73BFE00F027
:100480006FFC002809D1042C07D200222146401E0F
:1004900000F022F800206C6070BD012070BD0000EB
:1004A00004000020100000200448416B0122114389
:1004B0004163816B02041143816370470010024065
:1004C000002805DBC106C90E0120884001490860EB
:1004D0007047000000E100E010B501F087F910BDA1
:1004E000F8B50446007800275D4D800671D55C4E56
:1004F000403EB06BC00004D4B06BA9050843B063A4
:10050000012758480168C90511D4016882151143B3
:100510000160FFF785FF009005E0FFF781FF00997C
:10052000401A642837D84F480068C005F5D53268AE
:100530000321090560680A400140914208D0810307
:10054000890F032904D13168890301D50120F8BD41
:100550002A69032109040A4022D0084090421FD092
:10056000207880061CD528692A6988430121C9049E
:100570000A432A612A698A432A612861C0050FD586
:10058000FFF74EFF009008E0FFF74AFF0099411A7D
:100590003548814201D90320F8BD28698005F3D58B
:1005A00061688803800F032805D132680005824303
:1005B00001400A4332602869032261681204114035
:1005C00008432861002F04D0B06B0121090788433C
:1005D000B0632078C00705D0E868A1688008800073
:1005E0000843E8602078800705D5E8680C21884337
:1005F000E1680843E8602078400706D5E8680321F1
:100600008902884321690843E8602078000706D5FD
:10061000E86803210903884361690843E86020888A
:10062000C00506D5E868032109048843A169084389
:10063000E8602078400606D5E868012189068843ED
:10064000216A0843E8602078000606D5E86803219F
:1006500089048843E1690843E8600020F8BD000090
:10066000401002400070004088130000F8B50E46AC
:10067000050038D05E480068C007C00FB04214D2F1
:100680005B4C20684008400030432060FFF7C8FE04
:10069000074605E0FFF7C4FEC11B564881427AD8E1
:1006A0002068C007C00FB042F4D12878524C8007B0
:1006B00005D5E068F0218843A9680843E060287800
:1006C000C00752D06868022806D0032807D02168E6
:1006D00001280AD0890504E02168890301E0216826
:1006E0008901002903DB0120F8BD4907F9E7E1682A
:1006F000890889000143E160FFF792FE07466868B8
:1007000002280AD0032814D001281ED029E0FFF7C0
:1007100087FEC11B374881423DD8E0680007800F43
:100720000228F4D121E0FFF77BFEC11B3148814252
:1007300031D8E0680007800F0328F4D115E0FFF7F7
:100740006FFEC11B2B48814225D8E0680007800F4F
:100750000128F4D109E0FFF763FEC11B254881425F
:1007600019D8E0680007800FF5D121480168C90752
:10077000C90FB14217D901684908490031430160E6
:10078000FFF74EFE074608E005E0FFF749FEC11BF4
:100790001848814201D90320F8BD15480068C007F8
:1007A000C00FB042F1D12878400706D5E068072194
:1007B00009028843E9680843E0602878000707D504
:1007C000E0680721C90288432969C9000843E0603D
:1007D00000F03AF8E168094A0906090F515CC8407F
:1007E0000749086007480068FFF73CFEF8BD0000B5
:1007F000002002408813000000100240BC180008CE
:100800001000002008000020044805490068C9685D
:10081000044A4905490F515CC84070471000002048
:1008200000100240D5180008044805490068C9684E
:10083000044A8904490F515CC840704710000020E9
:1008400000100240D518000870B51A4AD3681A493A
:100850000C2018408D0004280CD04E00082810D021
:100860000C2810D050680004410F0120C003491C1F
:10087000884070BD1068C00601D5084670BD284686
:1008800070BD304670BD98020C4C000F205C1B02FE
:100890009C0FD368641CDB0301D5314603E012686A
:1008A000D20600D4294600F07BFF22460023FFF742
:1008B00037FC70BD0010024000093D00CC18000854
:1008C000FEB505007ED0F74CE7680C20E6680740CF
:1008D0000120000406402878C00747D0082F05D023
:1008E0000C2F0AD101200004864206D12068800323
:1008F0003CD568680028E5D038E00120696800042C
:10090000814203D121680143216011E005230122C6
:100910001B0492049942216802D111432160F1E73E
:10092000814321602168014000912068904320604C
:10093000686800280DD0FFF773FD009005E0FFF711
:100940006FFD0099401A64287ED820688003F6D590
:100950000CE0FFF765FD009005E0FFF761FD0099F1
:10096000401A6428F0D820688003F6D428788007DD
:100970005DD5E868810604D5226820210A432260FB
:1009800088430923042F0DD00C2F01D1002E09D04C
:1009900000283CD02168994301432160FFF740FDC6
:1009A000064628E02168490701D500288AD06168F9
:1009B0001F22120291432A691202114361602168C9
:1009C000994300E0C7E101432160FFF73DFFE16883
:1009D00009060A0FB449895CC840B4490860B448A4
:1009E0000068FFF73FFD002874D120E0FFF718FDF5
:1009F000801B0228A8D820684007F7D560681F210F
:100A00000902884329690902084360600FE02068F1
:100A1000400840002060FFF703FD064604E0FFF7B2
:100A2000FFFC801B02288FD820684007F7D4287865
:100A3000C00661D5002F0DD0E86900284BD0206892
:100A4000FF210131084300E0EAE02060FFF7E8FC05
:100A500006462DE02068800502D5E8690028A5D06B
:100A60006068072149038843696A084360606068D9
:100A7000298C0002000A090608436060686A410B7D
:100A80000120C003491C8840E16809060A0F864915
:100A9000895CC8408549086085480068FFF7E2FC2A
:100AA000002817D128E0FFF7BBFC801B0228A1D843
:100AB00020688005F7D56068072149038843696A83
:100AC000084360606068298C0002000A0906084338
:100AD000606011E025E12168FF2001308143216041
:100AE000FFF79EFC064604E0FFF79AFC801B0228F5
:100AF00099D820688005F7D428786E4E000724D551
:100B000068690028306910D0012108433061FFF77F
:100B100087FC009005E0FFF783FC0099401A02284B
:100B20007ED830698007F6D50FE04008400030617C
:100B3000FFF776FC009005E0FFF772FC0099401A81
:100B400002286DD830698007F6D42878400764D52C
:100B500000200290A06BC00006D4A06B0121090701
:100B60000843A0630120029053480168C90511D4CD
:100B70000168821511430160FFF752FC009005E007
:100B8000FFF74EFC0099401A642849D84A4800688B
:100B9000C005F5D5FF20AA680130824203D1316932
:100BA0000143316111E001218902002A07D00523A8
:100BB0001B029A4203D132690A433261EFE732697C
:100BC00082433261306988433061A86800280ED0C2
:100BD000FFF726FC009006E0FFF722FC0099411A7F
:100BE000364881421CD830698005F5D50DE0FFF705
:100BF00017FC009006E0FFF713FC0099411A2F48FC
:100C000081420DD830698005F5D40298002804D0BF
:100C1000A16B012000078143A1632878800600E0D2
:100C20007EE02ED52648A9694314002916D0A26873
:100C300001210A43A260626B0A436263016A19439D
:100C40000162FFF7EDFB064604E0FFF7E9FB801BBE
:100C5000022865D8A0688007F7D512E0A168490886
:100C60004900A160016A99430162FFF7D9FB06467A
:100C700004E0FFF7D5FB801B022851D8A06880074D
:100C8000F7D4A86A002868D00C2F4FD0012636066A
:100C90000228206816D0B0432060FFF7C1FB05464C
:100CA00040E0000000100240BC18000810000020C6
:100CB000080000204010024000700040881300002F
:100CC00000000140B0432060FFF7AAFB074604E0A4
:100CD000FFF7A6FBC01B022822D820688001F7D4AA
:100CE000296BE86AE2680843696BFD231B049A4399
:100CF00011430843E060206830432060FFF790FB19
:100D0000054604E0FFF78CFB401B022808D820684A
:100D10008001F7D521E0FFF783FB401B022801D9B2
:100D20000320FEBD20688001F5D416E00128F8D02C
:100D3000E06801210904EA6A014091420BD10F21C8
:100D400089042A6B0140914205D10321890508409D
:100D5000696B884201D00120FEBD0020FEBD00006D
:100D6000094910B5401E884201D9012010BD074C29
:100D700060610321081F00F039FD0020A0610720F9
:100D80002061002010BD0000FFFFFF0000E000E038
:100D90007047704770470000F8B502680446D06994
:100DA00011689668814B05461D402023002D6CD0AC
:100DB000F7077F4DFF0FBC460D402F4379D02546E6
:100DC000C7078035002F06D0CF0504D5012717624D
:100DD0002A683A432A60820708D5F20706D02768B6
:100DE00002223A622A6804273A432A60420708D559
:100DF000F20706D02668042232622A6802263243AD
:100E00002A6002070AD50A461A406646324305D0D0
:100E10002668082232622E6816432E60020508D525
:100E20004A0106D501222668D20232622A681A4394
:100E30002A602A68002A30D0800606D5880604D5A4
:100E4000616E002901D0204688472868216889689A
:100E5000490602D42821084225D0204600F00CFB88
:100E600020688168490619D5826840218A438260DA
:100E7000206F002812D04F498163206FFFF7E8F9F7
:100E800000280AD0206F816B06E0850611D58D06FB
:100E90000FD5616E77E020468847F8BD2046FFF702
:100EA00079FFF8BD05E02046FFF774FF00202860B9
:100EB000F7E7256E012D56D1C50654D5CD0652D57E
:100EC00010261662206881682546490640350029AB
:100ED0002ADA226F116849680904090CE1D02F8BC6
:100EE0008F42DED9698311680968890617D40168C1
:100EF000320191430160206881684908490081609E
:100F000020688168402291438160E3670020206669
:100F100020680168B1430160206FFFF777F9288BE3
:100F2000698B401A81B21AE0298B6A8B891A6A8B05
:100F300089B2002AB5D00029B3D00268FF25213537
:100F4000AA43026020688268520852008260E36708
:100F500000202066606620680268B2430260204676
:100F6000FFF716FF9DE7C50208D5750206D50120DB
:100F7000000510622046FFF70CFF92E7050605D535
:100F80000D0603D5A16E002985D18AE7400688D5D4
:100F9000480686D5116820464024A1431160836726
:100FA0000021816600F05DF97BE700000F0800007A
:100FB000200100046514000810B5040003D0A06FE0
:100FC000002802D007E0012010BD00217420015547
:100FD000204600F027F82420A0672068016849080F
:100FE00049000160204600F061FA0128ECD0606AF7
:100FF000002802D0204600F09EF9206841680922AE
:10100000D20291434160206881682A229143816025
:1010100020680168012211430160204600F0F0F9C8
:1010200010BD000010B586B0044614216846FFF7D5
:10103000AEF81149206888421CD11048416B01224A
:10104000920311434163C16A01221143C162C06A24
:101050006946104005900320400200900220019054
:101060000020029003200390042004900520000734
:10107000FFF714F906B010BD00380140001002401F
:10108000FFB50446C06F85B017460E4620287AD1BA
:10109000002E0AD0002F08D0A168C001814207D1DC
:1010A0002069002804D1F00702D0012009B0F0BD6A
:1010B000204660300090007D012864D00098012116
:1010C00001750020802108512221E1672066FFF789
:1010D000A7F92546403502902F836F830121A06830
:1010E0000903FF22884204D12369002B0CD1274A2F
:1010F0000AE07F23002809D001221207904219D16B
:101100002269002A05D03F22AA8303E02769002F25
:10111000FAD0AB83AA8B0192884202D120690028C1
:101120000AD0374600260099002008750198C0B201
:1011300003901AE00022E7E70027F4E70898009000
:10114000002220212046029B00F0BAFA002801D09C
:101150000320ABE72068002F0FD0416A03980140BD
:1011600039707F1C688B401E6883688B0028E5D12E
:101170002020E067002099E705E0406A01990840D7
:101180003080B61CEEE7022090E70000FF0100006F
:10119000FFB50446806F83B017460D4620285ED108
:1011A000002D0AD0002F08D0A168C001814207D1CC
:1011B0002069002804D1E80702D0012007B0F0BD63
:1011C000204660300090007D012848D00098012121
:1011D00001750020802108512120A067FFF720F928
:1011E000264640360190378277820120A1680003AD
:1011F000814202D12069002805D02F4600250099A0
:101200000020087511E00027F9E700228021204620
:1012100000F056FA002815D1002F15D02168387833
:1012200088627F1C708A401E7082708A019B002831
:1012300006980090E9D100224021204600F040FAB3
:10124000002808D00320B9E728882168C005C00D10
:101250008862AD1CE6E72020A0670020AEE70220F0
:10126000ACE77047FEE7000010B50C480A49016082
:101270004B21C901416000218160C1600161816130
:10128000C1610C22016242614162FFF795FE0028B4
:1012900001D072B6FEE710BD0038014014000020F6
:1012A000FEE77047704710B5FFF7C0F810BD0000AB
:1012B00030B59DB038216846FEF769FF142117A8A4
:1012C000FEF765FF24210EA8FEF761FF18480168AC
:1012D0000322D2029143C2148918016010200090A9
:1012E00005200024400301250990079508940A94DD
:1012F0006846FFF7E5FA002801D072B6FEE70F2036
:101300001790189419941A9400211B9417A8FFF7AA
:10131000ADF9002801D072B6FEE70EA80E95109424
:10132000FFF7DEF8002801D072B6FEE71DB030BD31
:1013300000700040704710B5818CC90707D0016864
:101340004A6801235B049A43836A1A434A60818C8A
:10135000890707D501684A6801231B049A43C36AB9
:101360001A434A60818C490707D501684A680123FE
:101370009B049A43036B1A434A60818C090707D583
:1013800001684A680123DB039A43436B1A434A60AE
:10139000818CC90607D50268916801231B03994314
:1013A000836B19439160818C890607D501688A682F
:1013B00001235B039A43C36B1A438A60818C4906FD
:1013C00012D503685A6801210905046C8A43224337
:1013D0005A60026C8A4207D10268516803235B0598
:1013E0009943436C19435160818C090607D5016804
:1013F0004A680123DB04806C9A4302434A6010BDB3
:10140000F8B50446002680300660FFF709F8054667
:1014100020680068124F000709D501212B460022E1
:1014200049052046009700F04BF900280DD12068AF
:10143000006840070BD501212B4600228905204674
:10144000009700F03DF9002801D00320F8BD2020CE
:10145000A067E0672666603426750020F8BD0000AE
:10146000FFFFFF0110B5806A0022014640314A8328
:101470004A82FFF78FFC10BD01680A68FF23213301
:101480009A430A6001688A68520852008A60016EB5
:10149000012904D101680A6810239A430A602021B7
:1014A000C16700210166416670470000F8B5044637
:1014B000016880682269E669104362690025324349
:1014C0001043754B0A68754E324002430A6020682B
:1014D0004168032212039143E2681143416021688D
:1014E000A069994201D0226A10438A680B2636020D
:1014F000B24302438A606A4922686A488A420CD130
:10150000C0688007800F06D001283FD002283BD05A
:10151000032827D124E0012725E063498A420AD124
:10152000C0680C2108402DD004282FD008282BD0CB
:101530000C2817D114E05D498A4223D05C498A42C5
:1015400020D09A420ED1C16803208002014019D0F8
:1015500001208002091A19D0091A15D0814201D13F
:10156000082700E010274F495248403986009A4228
:1015700032D1002F0CD0022F0DD0042F10D0082F05
:101580007FD126E00027EEE70227ECE70427EAE711
:10159000FFF73AF906E00968C90605D4304603E0CA
:1015A000FFF752F9002872D0626851005118814249
:1015B00067D81103814264D3010E0602500800234C
:1015C00030185941FEF7ACFD03210902411A3A4A8D
:1015D00055E00120C003E7E70122E369D20393420B
:1015E0002BD13B0000F0F4F80906090C4D114D4DCC
:1015F0004D274D00FFF708F909E0FFF715F906E060
:101600000968C90605D4304603E0FFF71DF9002834
:101610003DD0616840004A088018FEF76BFD80B23B
:1016200002462649103A8A422BD8491C014000073D
:10163000400F084329E01046EBE73B0000F0C8F8F4
:101640000906090C2112212121232100FFF7DCF8D2
:101650000AE0FFF7E9F807E00968C90606D4304652
:1016600004E00EE0FFF7F0F8002810D061684A08A7
:101670001018FEF73FFD80B20146104A1039914222
:1016800003D9012503E01046F0E72168C860002077
:101690006066A0662846F8BD00480040F369FFEF89
:1016A000003801404010024000440040004C00401F
:1016B0000050004000093D00FFFC0F00EFFF00005C
:1016C000FFB581B005460F46044660350A9E39E0F5
:1016D000701C37D0FEF7A4FE0499401AB04222D8FD
:1016E000002E20D02068016849072BD5C069C0436F
:1016F000000527D401202168C00208622068016823
:10170000FF22A132914301602068816849084900A5
:1017100081602020A067E067803420600020287569
:10172000032005B0F0BD20680168FF22A13291437B
:101730000160206881684908490081602020A06715
:10174000E067EBE72068C1693846884305D000218F
:1017500003988142BCD00020E3E70121F8E70000B4
:1017600010B5642301220B490B48FFF789FC0A4896
:10177000FFF712FB0748094B417802785A54491C7D
:10178000C9B241700A2903D301218170002141703F
:1017900010BD000000000020140000209800002070
:1017A000F8B5040C8BB2264682B25E430D0C10468F
:1017B000370C5843360480190021794116466E4390
:1017C000370C36048019794126466E438919F8BDD5
:1017D00030B47446641E2578641CAB4200D21D46AA
:1017E000635D5B00E31830BC184700008307FF22ED
:1017F000DB0E9A408907090E9940002808DB830810
:1018000009489B001B1818689043084318607047EC
:101810000007000F0838830804489B001B18D8698C
:1018200090430843D861704700E400E000ED00E019
:1018300002E008C8121F08C1002AFAD17047704799
:10184000002001E001C1121F002AFBD170470000F7
:1018500008B5FEF7F3FDFFF72BFD1248C16A012220
:101860001143C162C06A10400090FFF7FDFC0022E6
:1018700011461B20FEF730FE1B20FEF721FE0A4812
:1018800000680168202211430160084C002520787F
:101890000028FCD064230B2205A10348FFF778FC45
:1018A0002570F4E700100240140000200200002020
:1018B00031323368656C6C6F3132330000000000E8
:1018C00000000000010203040607080903040608DB
:1018D0000C1018203000000000010203040000007A
:1018E0000019000800000020140000003018000853
:1018F00014190008140000209C040000401800087F
:1019000000000000010000000400000000000000D2
:0419100000002000B3
:04000005080000C12E
:00000001FF
